:100000000C9434000C9448010C9451000C94C000E2
:100010000C9409010C9451000C9451000C94510063
:100020000C9451000C9451000C9451000C9451000C
:100030000C9451000C9451000C9451000C945100FC
:100040000C9451000C9451000C9451000C945100EC
:100050000C9451000C9451000C9451000C945100DC
:100060000C9451000C94510011241FBECFEFD8E026
:10007000DEBFCDBF14E0A0E0B1E0E0E5F6E002C0F5
:1000800005900D92A43CB107D9F724E0A4ECB4E0AC
:1000900001C01D92A23EB207E1F70E94F5010C9447
:1000A00026030C9400000F931F93CF93DF9367E018
:1000B0008AE00E9473010E945701C6ECD4E00EEC66
:1000C00014E08991FE013197880F811D808386ECB1
:1000D00094E00E94B00160E177E280E090E00E944D
:1000E000E9010C171D0769F7DF91CF911F910F915F
:1000F00008959091C604E6ECF4E0DF0111968C912E
:1001000011978D9384E0AD3CB807C1F79093CD046F
:100110002EEC34E08191DF011197880F811D8C93C3
:100120002E173F07B9F786EC94E00E94B00160E219
:100130007EE480E090E00C94E90185E08093690022
:1001400081E08DBBE8E6F0E0808384E180936B0082
:10015000808182608083ECE6F0E08081886080832B
:100160000895E6ECF4E0A8EDB4E011921D9284E06D
:10017000EE3CF807D1F71092D6041092D7040895F8
:100180001F920F920FB60F9211242F933F934F930C
:100190005F936F937F938F939F93AF93BF93EF93EF
:1001A000FF9368EE73E080E090E00E94E9018091A7
:1001B000C4048F5F8093C4041092C50480FF1BC0E9
:1001C0008091E00491E0811190E09093E004882315
:1001D000F1F02B98FF91EF91BF91AF919F918F918B
:1001E0007F916F915F914F913F912F910F900FBE33
:1001F0000F901F90189581E09091E004911103C039
:100200001092C404DFCF80E01092C404DBCF2B9A9D
:10021000E1CF1F920F920FB60F9211242F933F93AD
:100220004F935F936F937F938F939F93AF93BF93FE
:10023000EF93FF9360EA76E881E090E00E94E901A5
:100240008091E004813009F11092C504E6ECF4E0FD
:10025000A8EDB4E011921D9284E0EE3CF807D1F7CE
:100260001092D6041092D704FF91EF91BF91AF91F5
:100270009F918F917F916F915F914F913F912F91BE
:100280000F900FBE0F901F9018958093C504ECCF70
:100290001F920F920FB60F9211248F9381E08093DB
:1002A000E1048F910F900FBE0F901F9018955D98ED
:1002B00040E150E020E030E80DC05B9A5C9800001F
:1002C00000005C9A00000000000036952795415020
:1002D000510939F0BC0162237323672B71F75B98D6
:1002E000EDCF5D9A0895982F862F089581E09CE0C8
:1002F0000E94570180E09DE00E94570187E09AE04C
:100300000E9457018FEF9BE00E94570180E099E027
:100310000E94570180E091E00E94570180E092E046
:100320000E94570180E093E00E94570180E094E032
:100330000E9457018FEF95E00E9457018FEF96E0E2
:100340000E9457018FEF97E00E9457018FEF98E0CE
:100350000C94570187708F5F982F862F0C9457014C
:10036000CF93DF93EC01888190E091600E94570168
:10037000898190E092600E9457018A8190E09360A9
:100380000E9457018B8190E094600E9457018C81FC
:1003900090E095600E9457018D8190E096600E94E8
:1003A00057018E8190E097600E9457018F8190E005
:1003B0009860DF91CF910C94570190E09A600C9473
:1003C000570190E09B600C94570190E099600C9469
:1003D000570105C00000615071098109910961153B
:1003E000710581059105B1F70895CF93DF9300D092
:1003F00000D0CDB7DEB783E284B988E78AB917B8F1
:1004000082E090E00E94760185E08093690081E0BF
:100410008DBB8093680084E180936B0080916800BD
:1004200082608093680080916C00886080936C008B
:1004300078941092D6041092D704EE24E394F12C11
:1004400008C00E94790060E878E381E090E00E94B3
:10045000E90166E08AE00E9473010E9457015E9AFA
:100460008091E004813069F710E0DD24DA94209176
:10047000E104E12FF0E0EE0FFF1FEE0FFF1FE05051
:10048000FF4F80819181A281B38189839A83AB835D
:10049000BC8381E090E0211102C090E080E0E1E0C7
:1004A000F0E0EC0FFD1FE80FF91F108123E030E0B2
:1004B0002C0F3D1F820F931FDC018C918F3F09F0A1
:1004C000D82E1E3F80F1BFEFDB1250C067E08AE0FC
:1004D0000E9473010E9457011092CE041092CF0423
:1004E0001092D0041092D1041092D2041092D3042E
:1004F0001092D4041092D5048091D704970101C0C2
:10050000220F8A95EAF78091D60490E0FC01EA5325
:10051000FB4F40815091C504552309F486C02095B6
:100520002423208396CF1093CE041093CF041093EE
:10053000D0041093D1041093D2041093D3041093D9
:10054000D4041093D5048EEC94E00E94B00168EBC3
:100550007BE080E090E00E94E9011092E10468EB0A
:100560007BE080E090E00E94E90181CFCC24CA9436
:1005700010E000E02091E104000F111F000F111F97
:10058000F801E050FF4F80819181A281B38189837E
:100590009A83AB83BC8381E090E0211102C090E09C
:1005A00080E0E1E0F0E0EC0FFD1FE80FF91F0081B3
:1005B000E3E0F0E0EC0FFD1F8E0F9F1FDC018C913C
:1005C0008F3F09F0C82E0E3F48F0EFEFCE1609F42A
:1005D0007DCFD092D704C092D60478CF10E0EEEC55
:1005E000F4E030E020E0C801022E02C09595879526
:1005F0000A94E2F78170819581932F5F3F4F2830F5
:10060000310589F78EEC94E00E94B00168EB7BE045
:1006100080E090E00E94E9011092E10468EB7BE049
:1006200080E090E00E94E901A5CF82539B4FDC015E
:100630002C93242B20836CE08AE00E9473010E949B
:10064000570186EC94E00E94B001FDCEF894FFCFF4
:100650000F0FFFFF02FEFF00FFFEFF010C01FFFF77
:1006600008FEFF0200000000000000000000000083
:10067000FFFEFF030000000000000000000000007B
:10068000FF04FFFF0000000000000000F003FFFF78
:1006900020FEFF0400000000000000000000000039
:1006A000000000000000000000000000000000004A
:1006B000000000000000000000000000000000003A
:1006C000000000000000000000000000000000002A
:1006D000FFFEFF0500000000000000000000000019
:1006E000000000000000000000000000000000000A
:1006F00000000000000000000000000000000000FA
:1007000000000000000000000000000000000000E9
:10071000C010FFFF0000000000000000000000000B
:1007200000000000000000000000000000000000C9
:1007300000000000000000000000000000000000B9
:1007400000000000000000000000000000000000A9
:1007500080FEFF0600000000000000000000000016
:100760000000000000000000000000000000000089
:100770000000000000000000000000000000000079
:100780000000000000000000000000000000000069
:100790000000000000000000000000000000000059
:1007A0000000000000000000000000000000000049
:1007B0000000000000000000000000000000000039
:1007C0000000000000000000000000000000000029
:1007D0000000000000000000000000000000000019
:1007E0000000000000000000000000000000000009
:1007F00000000000000000000000000000000000F9
:1008000000000000000000000000000000000000E8
:1008100000000000000000000000000000000000D8
:1008200000000000000000000000000000000000C8
:1008300000000000000000000000000000000000B8
:1008400000000000000000000000000000000000A8
:10085000FFFEFF0700000000000000000000000095
:100860000000000000000000000000000000000088
:100870000000000000000000000000000000000078
:100880000000000000000000000000000000000068
:100890000000000000000000000000000000000058
:1008A0000000000000000000000000000000000048
:1008B0000000000000000000000000000000000038
:1008C0000000000000000000000000000000000028
:1008D0000000000000000000000000000000000018
:1008E0000000000000000000000000000000000008
:1008F00000000000000000000000000000000000F8
:1009000000000000000000000000000000000000E7
:1009100000000000000000000000000000000000D7
:1009200000000000000000000000000000000000C7
:1009300000000000000000000000000000000000B7
:1009400000000000000000000000000000000000A7
:10095000FF40FFFF0000000000000000000000005A
:100960000000000000000000000000000000000087
:100970000000000000000000000000000000000077
:100980000000000000000000000000000000000067
:100990000000000000000000000000000000000057
:1009A0000000000000000000000000000000000047
:1009B0000000000000000000000000000000000037
:1009C0000000000000000000000000000000000027
:1009D0000000000000000000000000000000000017
:1009E0000000000000000000000000000000000007
:1009F00000000000000000000000000000000000F7
:100A000000000000000000000000000000000000E6
:040A1000FF30FFFFB5
:00000001FF
