S00C00006D61696E2E7372656373
S11300000C9434000C9459000C9451000C9451003D
S11300100C9451000C9451000C9451000C94510018
S11300200C9451000C9451000C9451000C94510008
S11300300C9451000C9451000C9451000C945100F8
S11300400C9451000C9451000C9451000C945100E8
S11300500C9451000C9451000C9451000C945100D8
S11300600C9451000C94510011241FBECFEFD8E022
S1130070DEBFCDBF14E0A0E0B1E0E8EFF3E002C0E2
S113008005900D92A43CB107D9F724E0A4ECB4E0A8
S113009001C01D92A53CB207E1F70E9406010C9431
S11300A0FA010C94000085E08093690081E08DBB27
S11300B008951F920F920FB60F9211248F9381E02F
S11300C08093C4048F910F900FBE0F901F901895CA
S11300D05D9840E150E020E030E80DC05B9A5C9808
S11300E0000000005C9A000000000000369527958F
S11300F04150510939F0BC0162237323672B71F716
S11301005B98EDCF5D9A0895982F862F089581E02E
S11301109CE00E94680080E09DE00E94680087E007
S11301209AE00E9468008FEF9BE00E94680080E0E4
S113013099E00E94680080E091E00E94680080E0FD
S113014092E00E94680080E093E00E94680080E0F2
S113015094E00E9468008FEF95E00E9468008FEFA2
S113016096E00E9468008FEF97E00E9468008FEF8E
S113017098E00C94680087708F5F982F862F0C94FA
S11301806800CF93DF93EC01888190E091600E9436
S11301906800898190E092600E9468008A8190E002
S11301A093600E9468008B8190E094600E946800D4
S11301B08C8190E095600E9468008D8190E096604B
S11301C00E9468008E8190E097600E9468008F8191
S11301D090E09860DF91CF910C94680090E09A6071
S11301E00C94680090E09B600C94680090E0996027
S11301F00C94680005C000006150710981099109DF
S11302006115710581059105B1F70895CF93DF93C9
S1130210CDB7DEB72C970FB6F894DEBF0FBECDBFB7
S113022083E284B988E78AB917B80E94870085E019
S11302308093690081E08DBB7894D12CE12CCC248F
S1130240C39429C0FFEFFF1278C05E986CE08AE087
S11302500E9484000E94680019821A821B821C82F8
S11302601D821E821F821886E1E0F0E0EC0FFD1F64
S1130270ED0DF11D8C2D0E2C01C0880F0A94EAF7A8
S11302808083CE0101960E94C10060E878E381E09A
S113029090E00E94FA0063E08AE00E9484000E94D9
S11302A068005E9A10E0FF24FA942091C404E12FC0
S11302B0F0E0EE0FFF1FEE0FFF1FE050FF4F8081B5
S11302C09181A281B38189879A87AB87BC8781E0BA
S11302D090E0211102C090E080E0E9E0F0E0EC0F52
S11302E0FD1FE80FF91F10812BE030E02C0F3D1F9C
S11302F0820F931FFC0180818F3F09F0F82E1E3F6F
S113030008F0A0CF19831A831B831C831D831E83CB
S11303101F831887CE0101960E94C10060ED77E02B
S113032080E090E00E94FA001092C40468EB7BE045
S113033080E090E00E94FA00B8CFBB24BA9410E0A9
S113034000E02091C404000F111F000F111FF801D9
S1130350E050FF4F80819181A281B38189879A8780
S1130360AB87BC8781E090E0211102C090E080E07F
S1130370E9E0F0E0EC0FFD1FE80FF91F00812BE02E
S113038030E02C0F3D1F820F931FFC0180818F3FB3
S113039009F0B82E0E3F38F02FEFB21609F455CFFE
S11303A0EF2CDB2C52CF10E0FE01319630E020E040
S11303B0C801022E02C0959587950A94E2F78170D0
S11303C0819581932F5F3F4F2830310589F7CE0106
S11303D001960E94C10060ED77E080E090E00E9409
S11303E0FA001092C40468EB7BE080E090E00E9485
S10B03F0FA00A7CFF894FFCF37
S11303F80F0FFFFF02FEFF00FFFEFF010C01FFFFCE
S113040808FEFF02000000000000000000000000D9
S1130418FFFEFF03000000000000000000000000D1
S1130428FF04FFFF0000000000000000F003FFFFCE
S113043820FEFF040000000000000000000000008F
S113044800000000000000000000000000000000A0
S11304580000000000000000000000000000000090
S11304680000000000000000000000000000000080
S1130478FFFEFF050000000000000000000000006F
S11304880000000000000000000000000000000060
S11304980000000000000000000000000000000050
S11304A80000000000000000000000000000000040
S11304B8C010FFFF00000000000000000000000062
S11304C80000000000000000000000000000000020
S11304D80000000000000000000000000000000010
S11304E80000000000000000000000000000000000
S11304F880FEFF060000000000000000000000006D
S113050800000000000000000000000000000000DF
S113051800000000000000000000000000000000CF
S113052800000000000000000000000000000000BF
S113053800000000000000000000000000000000AF
S1130548000000000000000000000000000000009F
S1130558000000000000000000000000000000008F
S1130568000000000000000000000000000000007F
S1130578000000000000000000000000000000006F
S1130588000000000000000000000000000000005F
S1130598000000000000000000000000000000004F
S11305A8000000000000000000000000000000003F
S11305B8000000000000000000000000000000002F
S11305C8000000000000000000000000000000001F
S11305D8000000000000000000000000000000000F
S11305E800000000000000000000000000000000FF
S11305F8FFFEFF07000000000000000000000000EC
S113060800000000000000000000000000000000DE
S113061800000000000000000000000000000000CE
S113062800000000000000000000000000000000BE
S113063800000000000000000000000000000000AE
S1130648000000000000000000000000000000009E
S1130658000000000000000000000000000000008E
S1130668000000000000000000000000000000007E
S1130678000000000000000000000000000000006E
S1130688000000000000000000000000000000005E
S1130698000000000000000000000000000000004E
S11306A8000000000000000000000000000000003E
S11306B8000000000000000000000000000000002E
S11306C8000000000000000000000000000000001E
S11306D8000000000000000000000000000000000E
S11306E800000000000000000000000000000000FE
S11306F8FF40FFFF000000000000000000000000B1
S113070800000000000000000000000000000000DD
S113071800000000000000000000000000000000CD
S113072800000000000000000000000000000000BD
S113073800000000000000000000000000000000AD
S1130748000000000000000000000000000000009D
S1130758000000000000000000000000000000008D
S1130768000000000000000000000000000000007D
S1130778000000000000000000000000000000006D
S1130788000000000000000000000000000000005D
S1130798000000000000000000000000000000004D
S11307A8000000000000000000000000000000003D
S10707B8FF30FFFF0C
S9030000FC
