S00C00006D61696E2E7372656373
S11300000C9434000C9404010C9451000C9476006C
S11300100C94BF000C9451000C9451000C945100AA
S11300200C9451000C9451000C9451000C94510008
S11300300C9451000C9451000C9451000C945100F8
S11300400C9451000C9451000C9451000C945100E8
S11300500C9451000C9451000C9451000C945100D8
S11300600C9451000C94510011241FBECFEFD8E022
S1130070DEBFCDBF14E0A0E0B1E0E8E5F6E002C0E9
S113008005900D92A43CB107D9F724E0A4ECB4E0A8
S113009001C01D92AA3DB207E1F70E9404020C942C
S11300A02A030C94000085E08093690081E08DBBF5
S11300B0E8E6F0E0808384E180936B0080818260D5
S11300C08083ECE6F0E08081886080830895E6EC2C
S11300D0F4E0108211821282138214821582168235
S11300E017821092D6041092D70408951F920F928B
S11300F00FB60F9211242F933F934F935F936F93F7
S11301007F938F939F93AF93BF93EF93FF9368EB8A
S11301107BE080E090E00E94F8018091C4048F5F4E
S11301208093C4041092C50480FF1BC08091D8043E
S113013091E0811190E09093D8048823F1F02B98FA
S1130140FF91EF91BF91AF919F918F917F916F91AB
S11301505F914F913F912F910F900FBE0F901F9081
S1130160189581E09091D804911103C01092C404B1
S1130170DFCF80E01092C404DBCF2B9AE1CF1F9233
S11301800F920FB60F9211242F933F934F935F93C7
S11301906F937F938F939F93AF93BF93EF93FF934B
S11301A060EA76E881E090E00E94F8018091D8044A
S11301B0813039F11092C5041092C6041092C7041C
S11301C01092C8041092C9041092CA041092CB046D
S11301D01092CC041092CD041092D6041092D7043D
S11301E0FF91EF91BF91AF919F918F917F916F910B
S11301F05F914F913F912F910F900FBE0F901F90E1
S113020018958093C504ECCF1F920F920FB60F92EE
S113021011248F9381E08093D9048F910F900FBEA6
S11302200F901F9018955D988295807F2FEF280F6F
S113023081E090E002C0880F991F2A95E2F70097A9
S113024061F412C05B9A5C98000000005C9A0000A4
S1130250000096958795009739F09B012823392350
S1130260232B81F75B98EFCF5D9A0895982F862F03
S113027008950F931F93CF93DF93882349F1182F89
S113028000E061E07CE0812F0E94130160E07DE0EA
S1130290812F0E94130167E07AE0812F0E941301ED
S11302A067E07BE0812F0E94130160E079E0812FF9
S11302B00E941301C0E0D1E0BE01812F0E9413010E
S11302C0D395C11589E0D807B9F70F5F1013D9CFBB
S11302D0DF91CF911F910F9108950F931F93CF93A7
S11302E0DF938770442361F0D42F8F5F182F062F7C
S11302F0C0E0B8018D2F0E941301CF5FDC13F9CF4A
S1130300DF91CF911F910F910895CF92DF92EF92D9
S1130310FF920F931F93CF93DF93D62F6C01E12CA1
S1130320FF24F3948601C0E0DD2361F0F8018081AD
S1130330B701682B8D2F0E941301CF5F085F1F4FF9
S1130340DC13F4CFFFEFCF1ADF0AF394E114E9E0F2
S1130350FE0641F7DF91CF911F910F91FF90EF902F
S1130360DF90CF9008950F931F93CF93DF9366236D
S113037061F0D62F082F10E01A60C0E0B8018D2F6D
S11303800E941301CF5FDC13F9CFDF91CF911F914E
S11303900F9108950F931F93CF93DF93662361F01A
S11303A0D62F082F10E01B60C0E0B8018D2F0E94EB
S11303B01301CF5FDC13F9CFDF91CF911F910F9120
S11303C008950F931F93CF93DF93662361F0D62F85
S11303D0082F10E01960C0E0B8018D2F0E941301AE
S11303E0CF5FDC13F9CFDF91CF911F910F91089567
S11303F005C00000615071098109910961157105F9
S113040081059105B1F70895CF93DF9300D000D013
S1130410CDB7DEB783E284B988E78AB917B882E03A
S11304200E94390185E08093690081E08DBB80934F
S1130430680084E180936B008091680082608093FF
S1130440680080916C00886080936C0078941092AE
S1130450D6041092D704EE24E39434C03FEFF31291
S11304608EC05E986CE08AE00E943601BC0182E096
S11304700E9413011092CE041092CF041092D00463
S11304801092D1041092D2041092D3041092D40486
S11304901092D504E091D604F0E0E253FB4F809132
S11304A0D7042E2D01C0220F8A95EAF7208362E03B
S11304B08EEC94E00E94850160E878E381E090E0AE
S11304C00E94F80163E08AE00E943601BC0182E0E8
S11304D00E9413015E9A10E0FF24FA942091D9043B
S11304E0E12FF0E0EE0FFF1FEE0FFF1FE050FF4F74
S11304F080819181A281B38189839A83AB83BC83F8
S113050081E090E0211102C090E080E0E1E0F0E0C1
S1130510EC0FFD1FE80FF91F108123E030E02C0FD2
S11305203D1F820F931FFC0180818F3F09F0F82E3D
S11305301E3F08F093CF1093CE041093CF04109372
S1130540D0041093D1041093D2041093D3041093C5
S1130550D4041093D50462E08EEC94E00E948501EB
S113056068EB7BE080E090E00E94F8011092D904EF
S113057068EB7BE080E090E00E94F801AFCFDD24DF
S1130580DA9410E000E02091D904000F111F000F4D
S1130590111FF801E050FF4F80819181A281B38146
S11305A089839A83AB83BC8381E090E0211102C0EC
S11305B090E080E0E1E0F0E0EC0FFD1FE80FF91FB0
S11305C0008123E030E02C0F3D1F820F931FFC01BC
S11305D080818F3F09F0D82E0E3F48F08FEFD81658
S11305E009F43FCFF092D704D092D6043ACF809149
S11305F0D7044E2D01C0440F8A95EAF710E0AEEC03
S1130600B4E0E6ECF4E030E020E0C801022E02C0E1
S1130610959587950A94E2F7817081958D9384234B
S113062081932F5F3F4F2830310579F762E08EECDC
S113063094E00E94850168EB7BE080E090E00E94FA
S1130640F8011092D90468EB7BE080E090E00E940E
S10B0650F80199CFF894FFCFE3
S11306580F0FFFFF02FEFF00FFFEFF010C01FFFF6B
S113066808FEFF0200000000000000000000000077
S1130678FFFEFF030000000000000000000000006F
S1130688FF04FFFF0000000000000000F003FFFF6C
S113069820FEFF040000000000000000000000002D
S11306A8000000000000000000000000000000003E
S11306B8000000000000000000000000000000002E
S11306C8000000000000000000000000000000001E
S11306D8FFFEFF050000000000000000000000000D
S11306E800000000000000000000000000000000FE
S11306F800000000000000000000000000000000EE
S113070800000000000000000000000000000000DD
S1130718C010FFFF000000000000000000000000FF
S113072800000000000000000000000000000000BD
S113073800000000000000000000000000000000AD
S1130748000000000000000000000000000000009D
S113075880FEFF060000000000000000000000000A
S1130768000000000000000000000000000000007D
S1130778000000000000000000000000000000006D
S1130788000000000000000000000000000000005D
S1130798000000000000000000000000000000004D
S11307A8000000000000000000000000000000003D
S11307B8000000000000000000000000000000002D
S11307C8000000000000000000000000000000001D
S11307D8000000000000000000000000000000000D
S11307E800000000000000000000000000000000FD
S11307F800000000000000000000000000000000ED
S113080800000000000000000000000000000000DC
S113081800000000000000000000000000000000CC
S113082800000000000000000000000000000000BC
S113083800000000000000000000000000000000AC
S1130848000000000000000000000000000000009C
S1130858FFFEFF0700000000000000000000000089
S1130868000000000000000000000000000000007C
S1130878000000000000000000000000000000006C
S1130888000000000000000000000000000000005C
S1130898000000000000000000000000000000004C
S11308A8000000000000000000000000000000003C
S11308B8000000000000000000000000000000002C
S11308C8000000000000000000000000000000001C
S11308D8000000000000000000000000000000000C
S11308E800000000000000000000000000000000FC
S11308F800000000000000000000000000000000EC
S113090800000000000000000000000000000000DB
S113091800000000000000000000000000000000CB
S113092800000000000000000000000000000000BB
S113093800000000000000000000000000000000AB
S1130948000000000000000000000000000000009B
S1130958FF40FFFF0000000000000000000000004E
S1130968000000000000000000000000000000007B
S1130978000000000000000000000000000000006B
S1130988000000000000000000000000000000005B
S1130998000000000000000000000000000000004B
S11309A8000000000000000000000000000000003B
S11309B8000000000000000000000000000000002B
S11309C8000000000000000000000000000000001B
S11309D8000000000000000000000000000000000B
S11309E800000000000000000000000000000000FB
S11309F800000000000000000000000000000000EB
S1130A0800000000000000000000000000000000DA
S1070A18FF30FFFFA9
S9030000FC
