S00C00006D61696E2E7372656373
S11300000C9434000C944E000C9446000C9446005E
S11300100C9446000C9446000C9446000C94460044
S11300200C9446000C9446000C9446000C94460034
S11300300C9446000C9446000C9446000C94460024
S11300400C9446000C9446000C9446000C94460014
S11300500C9446000C9446000C9446000C94460004
S11300600C9446000C94460011241FBECFEFD8E038
S1130070DEBFCDBF21E0A0E0B1E001C01D92A13000
S1130080B207E1F70E94FF000C94B6010C94000043
S113009085E08093690081E08DBB08951F920F92E3
S11300A00FB60F9211248F9381E0809300018F91FA
S11300B00F900FBE0F901F9018952A9840E150E0C2
S11300C020E030E80DC02B9A2D98000000002D9AF6
S11300D0000000000000369527954150510939F081
S11300E0BC0162237323672B71F72B98EDCF2A9AF7
S11300F0089570E09B01382BC901089581E09CE0CC
S11301000E945D0080E09DE00E945D0087E09AE02F
S11301100E945D008FEF9BE00E945D0080E099E00B
S11301200E945D0080E091E00E945D0080E092E02A
S11301300E945D0080E093E00E945D0080E094E016
S11301400E945D008FEF95E00E945D008FEF96E0C6
S11301500E945D008FEF97E00E945D008FEF98E0B2
S11301600C945D00877021E0280F862F90E0922B7D
S11301700C945D00CF93DF93EC01888190E0916053
S11301800E945D00898190E092600E945D008A81F6
S113019090E093600E945D008B8190E094600E94E7
S11301A05D008C8190E095600E945D008D8190E0FF
S11301B096600E945D008E8190E097600E945D00D1
S11301C08F8190E09860DF91CF910C945D0090E076
S11301D09A600C945D0090E09B600C945D0090E04C
S11301E099600C945D0005C000006150710981099B
S11301F091096115710581059105B1F70895CF93B2
S1130200DF93CDB7DEB728970FB6F894DEBF0FBEE5
S1130210CDBF8CE284B91AB817B80E947E0085E07D
S11302208093690081E08DBB7894A12CB12C8E0160
S1130230075F1F4F77247A948824839427E0522EF3
S1130240CC24C394D12C6EE08AE00E9479000E94F1
S11302505D005E9ACE0101967C01FC0171920E173D
S11302601F07E1F7CE0101960E94BA0060E273E035
S113027080E090E00E94F3001092000160EA7FE0C9
S113028080E090E00E94F30080910001882309F44B
S113029048C086E0A82EB12C90E2992E612CFE0174
S11302A03196292D61E080E090E030E02150462F26
S11302B0082E01C0440F0A94EAF7342B211104C01C
S11302C0282D261B622F292D01968830910571F760
S11302D031930E171F0739F7CE0101960E94BA0019
S11302E060E273E080E090E00E94F300109200016D
S11302F060E87AE186E090E00E94F30080910001DA
S113030081116928969481E0A81AB10841F6862DD6
S1130310859585958595A52CA81A862D8095877039
S1130320B82E5E9862E08AE00E9479000E945D0027
S1130330F70111927F010E171F07D1F7C6010B2C8D
S113034001C0880F0A94EAF7E1E0F0E0EC0FFD1F2A
S1130350EA0DF11D8083CE0101960E94BA0060E08F
S11303607AE688E190E00E94F3006DCFF894FFCF25
S9030000FC
