:100000000C9434000C94E6020C9446000C944600C8
:100010000C9446000C9446000C9446000C94460048
:100020000C9446000C9446000C9446000C94460038
:100030000C9446000C9446000C9446000C94460028
:100040000C9446000C9446000C9446000C94460018
:100050000C9446000C9446000C9446000C94460008
:100060000C9446000C94460011241FBECFEFD8E03C
:10007000DEBFCDBF21E0A0E0B1E001C01D92A33002
:10008000B207E1F70E9497030C9419040C94000046
:100090009F92AF92BF92CF92DF92EF92FF920F9317
:1000A0001F93CF93DF93CDB7DEB728970FB6F894A1
:1000B000DEBF0FBECDBF6FE08AE00E9411030E9439
:1000C000F5025E9A1FEF7E0129E0E20EF11C1F3F50
:1000D00009F052C106E099249A9410E01F3009F407
:1000E000DBC008F4EEC1103409F4A5C008F023C247
:1000F000103209F493C0103309F489C01031D1F0E3
:100100001FE0FE0131961193EE16FF06E1F7CE01D6
:1001100001960E94520360ED77E080E090E00E943B
:100120008B031092020160E17EE080E090E00E948B
:100130008B03D4CF80910201882309F4B3C080914E
:100140000201811133C1015091E009F45AC081E0EC
:100150002FEF921280E0892309F0BDCFA02EB12CA1
:100160008FEF981609F479C0192D00E099249A941C
:100170000F3009F4C9C008F41DC1003409F4D5C01A
:1001800008F07CC1003209F4DFC0003309F4C5C0B7
:10019000003109F4AAC04FE050E00FE0FE013196B3
:1001A00020E030E0CA01022E02C0959587950A949E
:1001B000E2F78170819581932F5F3F4F28303105A1
:1001C00089F7CE0101960E94520360ED77E080E04E
:1001D00090E00E948B031092020160E17EE080E0DB
:1001E00090E00E948B03C4CF80910201882309F420
:1001F000DDC18091020101508111E0C191E009F05F
:10020000A6CF90E081E02FEF9212A4CFA4CF8091EF
:100210000201882309F465C010E173CF80910201C7
:10022000882309F448C080910201882309F48BCF08
:1002300095E0992E88CF80910201882309F448C067
:1002400080910201882309F47ECF015086E0982E28
:10025000A02EB12C8FEF981287CF00FBCC24C0F8D2
:10026000D12C1FEFCD2809F032CF109301019092CD
:1002700000015E9828960FB6F894DEBF0FBECDBF82
:10028000DF91CF911F910F91FF90EF90DF90CF9072
:10029000BF90AF909F90089580910201882319F13B
:1002A00013E02FCF8091020110E2882309F429CFB7
:1002B00044E0942E26CF809102018111B9CF0150E4
:1002C00091E08FEF981290E081E0011144CF42CF8E
:1002D0008091020110E8882309F413CF36E0932EB1
:1002E00010CF10EC0ECF10EF0CCF809102018111D6
:1002F00047C08091020140E250E000E2882309F407
:100300004DCFE4E09E2E4ACF80910201882309F46C
:1003100042C043E050E003E041CF809102018823D6
:10032000B1F140E150E000E139CF8091020181114B
:1003300036C08091020140E850E000E8882309F4CB
:100340002DCF76E0972E2ACF809102018091020175
:10035000882311F055E0952E81E090E02FEF921662
:1003600011F080E090E06C01CA20DB20CD2809F478
:100370007CCF1F3F09F4AECE36E0A32EB12CF5CED4
:1003800080910201882341F3B4E09B2E6ECF40ECB4
:1003900050E000EC03CF40EF50E000EFFFCE809143
:1003A00002018823C9F2A6E09A2E5FCF015094E0A3
:1003B000992ED4CE0330B9F0E8F1083029F10C3091
:1003C000D1F0043009F0E7CE80910201811126C0FE
:1003D0008091020148E050E008E0882309F4DECE75
:1003E000F2E09F2EDBCE809102018823F9F041E0FC
:1003F00050E001E0D3CE80910201882309F4ACCF14
:1004000044E050E004E0CACE8091020180910201F4
:10041000882309F4A1CF63E0962E9ECF809102013C
:10042000882309F499CF02E0902E1FCF4CE050E0D2
:100430000CE0B4CE013069F0023009F0ACCE80910E
:10044000020180910201882309F486CF99249394B4
:1004500083CF8091020181110AC08091020142E0A4
:1004600050E002E0882309F499CE912C97CE809138
:100470000201882309F470CF912CF7CE003C79F06B
:10048000003FB1F0003809F086CE809102018091E2
:100490000201882309F460CF47E0942E5DCF80915C
:1004A0000201882309F458CF40E450E000E476CEFE
:1004B00080910201882309F44FCF40E350E000E32C
:1004C0006DCE1330B1F008F461C01830F9F01C3073
:1004D000B1F0143009F014CE80910201882301F1AB
:1004E00080910201882309F42ECE015022E0922E41
:1004F00035CE809102018823E1F011E002CE809197
:100500000201882309F41FCE14E0FBCD8091020183
:1005100080910201882309F416CE23E0922E13CE97
:100520008091020118E0882309F4EBCD52E0952E6A
:10053000E8CD1CE0E6CD103C89F0103FB1F010385A
:1005400009F0DECD809102018823B1F08091020193
:10055000882309F4B4CE87E0982EF5CD809102016E
:10056000882309F4F0CD10E4CCCD809102018823DA
:1005700009F4E9CD10E3C5CD809102018111EBCFE3
:10058000015091E02FEF92129ECE9ECE113009F4D1
:100590002BCE123009F0B4CD80910201809102017E
:1005A000882309F4D0CD99249394CDCD8091020174
:1005B00012E0882309F4A5CD912CA3CD912CCECDAA
:1005C00085E08093690081E08DBB08951F920F92B2
:1005D0000FB60F9211248F9381E0809302018F91C7
:1005E0000F900FBE0F901F9018952A9840E150E091
:1005F00020E030E80DC02B9A2D98000000002D9AC5
:10060000000000000000369527954150510939F04F
:10061000BC0162237323672B71F72B98EDCF2A9AC5
:10062000089570E09B01382BC901089581E09CE09A
:100630000E94F50280E09DE00E94F50287E09AE0CA
:100640000E94F5028FEF9BE00E94F50280E099E0A6
:100650000E94F50280E091E00E94F50280E092E0C5
:100660000E94F50280E093E00E94F50280E094E0B1
:100670000E94F50280E095E00E94F50280E096E09D
:100680000E94F50280E097E00E94F50280E098E089
:100690000C94F502877021E0280F862F90E0922BB2
:1006A0000C94F502CF93DF93EC01888190E0916088
:1006B0000E94F502898190E092600E94F5028A8191
:1006C00090E093600E94F5028B8190E094600E941C
:1006D000F5028C8190E095600E94F5028D8190E09A
:1006E00096600E94F5028E8190E097600E94F5026C
:1006F0008F8190E09860DF91CF910C94F50290E0AB
:100700009A600C94F50290E09B600C94F50290E0E6
:1007100099600C94F50205C00000615071098109CF
:1007200091096115710581059105B1F70895CF9380
:10073000DF93CDB7DEB728970FB6F894DEBF0FBEB4
:10074000CDBF8CE284B91AB817B80E94160385E0B1
:100750008093690081E08DBB789410920001109223
:100760000101FE013196CE0109961192E817F907B1
:10077000E1F762E08AE00E9411030E94F502CE01D7
:1007800001960E945203EE24E394F12C11E002C082
:1007900080FF03C083B11999FBCF0E94480062E03B
:1007A0008AE00E9411030E94F502809101018F3FAF
:1007B00061F1909100019F3F41F1189911C0E1E072
:1007C000F0E0EC0FFD1FE90FF11D97FDFA95408158
:1007D0009701082E01C0220F0A94EAF7242B2083E8
:1007E000199913C0E1E0F0E0EC0FFD1FE90FF11DD6
:1007F00097FDFA95970102C0220F331F8A95E2F701
:10080000922F9095808189238083CE0101960E944A
:10081000520383B193B181708113FBCF9695917090
:100820009113F7CF60E47FE180E090E00E948B03BA
:06083000B1CFF894FFCFE8
:00000001FF
