:100000000C9434000C944E000C9446000C94460062
:100010000C9446000C9446000C9446000C94460048
:100020000C9446000C9446000C9446000C94460038
:100030000C9446000C9446000C9446000C94460028
:100040000C9446000C9446000C9446000C94460018
:100050000C9446000C9446000C9446000C94460008
:100060000C9446000C94460011241FBECFEFD8E03C
:10007000DEBFCDBF21E0A0E0B1E001C01D92A13004
:10008000B207E1F70E94FF000C948D030C9400006E
:1000900085E08093690081E08DBB08951F920F92E7
:1000A0000FB60F9211248F9381E0809300018F91FE
:1000B0000F900FBE0F901F9018952A9840E150E0C6
:1000C00020E030E80DC02B9A2D98000000002D9AFA
:1000D000000000000000369527954150510939F085
:1000E000BC0162237323672B71F72B98EDCF2A9AFB
:1000F000089570E09B01382BC901089581E09CE0D0
:100100000E945D0080E09DE00E945D0087E09AE033
:100110000E945D008FEF9BE00E945D0080E099E00F
:100120000E945D0080E091E00E945D0080E092E02E
:100130000E945D0080E093E00E945D0080E094E01A
:100140000E945D008FEF95E00E945D008FEF96E0CA
:100150000E945D008FEF97E00E945D008FEF98E0B6
:100160000C945D00877021E0280F862F90E0922B81
:100170000C945D00CF93DF93EC01888190E0916057
:100180000E945D00898190E092600E945D008A81FA
:1001900090E093600E945D008B8190E094600E94EB
:1001A0005D008C8190E095600E945D008D8190E003
:1001B00096600E945D008E8190E097600E945D00D5
:1001C0008F8190E09860DF91CF910C945D0090E07A
:1001D0009A600C945D0090E09B600C945D0090E050
:1001E00099600C945D0005C000006150710981099F
:1001F00091096115710581059105B1F70895CF93B6
:10020000DF93CDB7DEB728970FB6F894DEBF0FBEE9
:10021000CDBF8CE284B91AB817B80E947E0085E081
:100220008093690081E08DBB7894C12CD12C8E0124
:10023000075F1F4F67E08AE00E9479000E945D001F
:100240005E9AF12CEE24EA948FE0F81609F4A3C02C
:100250008F1508F0FBC180E4F81609F48FC08F15E4
:1002600008F4D1C180E2F81609F47EC080E3F816E4
:1002700009F472C080E1F816D9F09FE0F92EFE0172
:100280003196F192E017F107E1F7CE0101960E9455
:10029000BA0060ED77E080E090E00E94F3001092F9
:1002A000000160E47EE785E090E00E94F300CCCF9F
:1002B00080910001882309F4A9C080910001811177
:1002C00029C28FEFE81609F47CC0F12CBB24BA9444
:1002D0008FE0F81609F4B4C08F1508F025C180E44A
:1002E000F81609F460C08F1508F4F7C080E2F8161C
:1002F00009F4C4C080E3F81609F4B7C080E1F81629
:1003000009F4A7C04FE050E0EFE0FE2EFE01319669
:1003100020E030E0CA01022E02C0959587950A942C
:10032000E2F78170819581932F5F3F4F283031052F
:1003300089F7CE0101960E94BA0060ED77E080E077
:1003400090E00E94F3001092000160E47EE785E0F7
:1003500090E00E94F300BCCF80910001882309F453
:100360005FC080E1F82E8BCF809100018091000169
:10037000882309F4A6CFB5E0EB2EA7CF809100012A
:10038000882309F450C080910001882309F499CF93
:1003900026E0E22E9ACF80910001882309F44DC017
:1003A00023E0F22E6CCF80910001882309F481C0F4
:1003B0008091000181118EC08FEFB81611F0DE2CF4
:1003C000CB2C5E986CE08AE00E9479000E945D0070
:1003D000FE01319611920E171F07E1F7E1E0F0E000
:1003E000EC0FFD1FEC0DF11D81E00D2C01C0880FFD
:1003F0000A94EAF78083CE0101960E94BA0060E079
:1004000075E38CE090E00E94F30014CF809100012E
:1004100050E2F52E882309F432CFE4E0EE2E2FCF00
:10042000E0ECFE2E2CCF8091000130E8F32E8823E3
:1004300009F425CF76E0E72E22CF80EFF82E1FCFEC
:1004400080910001882381F143E050E063E0F62EC3
:100450005DCF809100018823D9F08091000188232D
:1004600009F4AACFB4E0BB2EAACF80910001882363
:1004700061F140E150E020E1F22E48CF809100018F
:1004800080910001882309F497CF95E0B92E97CF8A
:100490008091000140E250E090E2F92E882309F4B7
:1004A00035CFA4E0BA2E32CF40EF50E070EFF72EF8
:1004B0002DCF8091000140E850E0A0E8FA2E88237B
:1004C00009F424CFF6E0BF2E21CF40EC50E090ECB1
:1004D000F92E1CCFF6E0BF2E72CF80ECF81681F01B
:1004E00080EFF816B9F080E8F8120CCF8091000187
:1004F00080910001882309F45FCF87E0B82E5FCF99
:1005000080910001882309F457CF40E450E080E453
:10051000F82EFCCE80910001882309F44DCF40E3F2
:1005200050E060E3F62EF2CE83E0F816C1F08F15AE
:1005300008F043C088E0F81629F18CE0F816C1F005
:1005400084E0F812DFCE80910001882329F18091A8
:100550000001882309F430CF22E0B22E30CF809101
:100560000001882329F141E050E0FF24F394CECE2E
:1005700080910001882309F41FCF44E050E024E07B
:10058000F22EC4CE8091000180910001882309F4ED
:1005900013CF33E0B32E13CF8091000148E050E039
:1005A00038E0F32E882309F4B1CEB2E0BB2EAECEF4
:1005B0004CE050E03CE0F32EA9CE81E0F81669F063
:1005C00082E0F8129FCE8091000180910001882383
:1005D00009F4F2CEBB24B394F2CE809100018823BB
:1005E00039F080910001882309F4E6CEB12CE7CEE2
:1005F0008091000142E050E062E0F62E882309F489
:1006000085CEB12C83CE80ECF81681F080EFF81601
:10061000A9F080E8F81231CE8091000180910001AC
:10062000882309F44ECEA7E0EA2E4FCE8091000138
:10063000882309F446CE70E4F72E21CE8091000184
:10064000882309F43ECEB0E3FB2E19CE83E0F816E2
:10065000B9F08F15D8F588E0F81609F18CE0F81696
:10066000B1F084E0F81209CE80910001882309F1ED
:1006700080910001882309F424CE62E0E62E25CE85
:10068000809100018823F9F0FF24F394F8CD809144
:100690000001882309F415CEF4E0FF2EF0CD8091FF
:1006A000000180910001882309F40BCE93E0E92E2C
:1006B0000CCE8091000178E0F72E882309F4DFCD7D
:1006C000F2E0EF2EDCCDACE0FA2ED9CD81E0F816C9
:1006D00069F082E0F812D1CD809100018091000193
:1006E000882309F4EECDEE24E394EFCD8091000150
:1006F000882339F080910001882309F4E2CDE12CB0
:10070000E4CD80910001E2E0FE2E882309F4B7CD0C
:0E071000E12CB5CD44E0E42ED8CDF894FFCF17
:00000001FF
