S00C00006D61696E2E7372656373
S11300000C9434000C9488040C9446000C94460020
S11300100C9446000C9446000C9446000C94460044
S11300200C9446000C9446000C9446000C94460034
S11300300C9446000C9446000C9446000C94460024
S11300400C9446000C9446000C9446000C94460014
S11300500C9446000C9446000C9446000C94460004
S11300600C9446000C94460011241FBECFEFD8E038
S1130070DEBFCDBF21E0A0E0B1E001C01D92A330FE
S1130080B207E1F70E9435050C94B6050C94000004
S11300905F926F927F928F929F92AF92BF92CF9214
S11300A0DF92EF92FF920F931F93CF93DF93CDB71D
S11300B0DEB728970FB6F894DEBF0FBECDBF6FE052
S11300C08AE00E94B3040E9497045E9AAA24AA9428
S11300D050EFC52E01E010E38FEF90E1892E20E26E
S11300E0722EA81609F463C086E0E82EF12C3FE0D6
S11300F0B32EDD24DA944B2D50E0FE01319630E02E
S113010020E0CA01022E02C0959587950A94E2F771
S11301108170819581932F5F3F4F2830310589F796
S1130120CE0101960E94F00460ED77E080E090E05B
S11301300E9429051092020160E17EE080E090E0D7
S11301400E9429058FE0B81609F47CC38B1508F0CA
S1130150EEC220E4B21609F47EC32B1508F406C3DC
S113016080E2B81609F441C320E3B21609F434C39B
S113017080E1B812C2C380910201882309F4A6C3A6
S1130180809102018111B6C381E090E02FEFD21675
S113019011F090E080E0E822F922EF2809F4F9C296
S11301A08FEF90E1892E20E2722EA8129DCF96E067
S11301B0B92E2FE0F22E34E0632E40EC942E50E45E
S11301C0A52E60E8562E73E0E72EF982FA82FB82B0
S11301D0FC82FD82FE82FF82F886CE0101960E9497
S11301E0F00460ED77E080E090E00E942905109231
S11301F0020160E17EE080E090E00E9429058091A8
S1130200020181117AC0C982CA82CB82CC82CD829A
S1130210CE82CF82C886CE0101960E94F00460EDA2
S113022077E080E090E00E9429051092020160E1ED
S11302307EE080E090E00E942905809102018823FD
S113024009F448C019831A831B831C831D831E83EE
S11302501F831887CE0101960E94F00460ED77E0B9
S113026080E090E00E9429051092020160E17EE0A6
S113027080E090E00E94290580910201882309F41E
S113028084C089828A828B828C828D828E828F82C4
S11302908886CE0101960E94F00460ED77E080E04C
S11302A090E00E9429051092020160E17EE080E066
S11302B090E00E94290580910201882309F4F8C086
S11302C080910201BA94882331F0EB2CF12C24E0C4
S11302D0A22E0DCFBA9481E0B11001C080E0DD24DC
S11302E0DA94811172CFEB2CF12C2FEFD21208C3C8
S11302F0B0FC5DCFAA24AA944CC2E982EA82EB82C4
S1130300EC82ED82EE82EF82E886CE0101960E94B5
S1130310F00460ED77E080E090E00E9429051092FF
S1130320020160E17EE080E090E00E942905809176
S11303300201882309F472C009830A830B830C83A6
S11303400D830E830F830887CE0101960E94F0046B
S113035060ED77E080E090E00E94290510920201B0
S113036060E17EE080E090E00E9429058091020136
S1130370882309F404C180910201BA94882309F402
S1130380AACFEB2CF12CA12CB2CE99829A829B821B
S11303909C829D829E829F829886CE0101960E94B5
S11303A0F00460ED77E080E090E00E94290510926F
S11303B0020160E17EE080E090E00E9429058091E6
S11303C00201882309F486CFA982AA82AB82AC8277
S11303D0AD82AE82AF82A886CE0101960E94F0045F
S11303E060ED77E080E090E00E9429051092020120
S11303F060E17EE080E090E00E94290580910201A6
S1130400882309F4EEC080910201BA94882309F488
S113041062CFEB2CF12C86E0A82E69CE8CE0898388
S11304208A838B838C838D838E838F838887CE018D
S113043001960E94F00460ED77E080E090E00E9475
S113044029051092020160E17EE080E090E00E94C4
S1130450290580910201882309F43CCF69826A82CC
S11304606B826C826D826E826F826886CE01019689
S11304700E94F00460ED77E080E090E00E9429059E
S11304801092020160E17EE080E090E00E94290584
S113049080910201882309F441C080910201BA9439
S11304A0882309F418CFEB2CF12C42E0A42E1FCEA4
S11304B08091020181111EC179827A827B827C82C1
S11304C07D827E827F827886CE0101960E94F0042E
S11304D060ED77E080E090E00E942905109202012F
S11304E060E17EE080E090E00E942905DD24DA945A
S11304F090910201BA9481E0B11001C080E0909122
S11305000201992329F0EB2CF12C95E0A92EEFCDD3
S113051091E02FEFD21290E08923E3CE8091020183
S11305208111ADC088E089838A838B838C838D831A
S11305308E838F838887CE0101960E94F00460ED3C
S113054077E080E090E00E9429051092020160E1CA
S11305507EE080E090E00E942905DD24DA94909109
S11305600201BA9481E0B11001C080E090910201CF
S1130570992371F2EB2CF12C33E0A32EB8CD8091AA
S1130580020181119AC082E089838A838B838C83E0
S11305908D838E838F838887CE0101960E94F00419
S11305A060ED77E080E090E00E942905109202015E
S11305B060E17EE080E090E00E942905DD24DA9489
S11305C090910201BA9481E0B11001C080E0909151
S11305D00201992309F49CCFEB2CF12CAA24A394B7
S11305E086CD8091020181112DC059825A825B828D
S11305F05C825D825E825F825886CE0101960E9493
S1130600F00460ED77E080E090E00E94290510920C
S1130610020160E17EE080E090E00E942905DD2493
S1130620DA9490910201BA9481E0B11001C080E0A3
S113063090910201992309F46BCFEB2CF12CB7E0D4
S1130640AB2E55CD59825A825B825C825D825E827A
S11306505F825886CE0101960E94F00460ED77E037
S113066080E090E00E9429051092020160E17EE0A2
S113067080E090E00E942905A6E0DA2ED2CF88E03F
S113068089838A838B838C838D838E838F838887EE
S1130690CE0101960E94F00460ED77E080E090E0E6
S11306A00E9429051092020160E17EE080E090E062
S11306B00E942905F2E0DF2E52CF82E089838A83EB
S11306C08B838C838D838E838F838887CE01019661
S11306D00E94F00460ED77E080E090E00E9429053C
S11306E01092020160E17EE080E090E00E94290522
S11306F0D12C66CF79827A827B827C827D827E82D3
S11307007F827886CE0101960E94F00460ED77E046
S113071080E090E00E9429051092020160E17EE0F1
S113072080E090E00E942905E4E0DE2EE1CE23E0A3
S1130730B21609F47EC02B1508F09AC088E0B816EA
S113074009F46DC02CE0B21609F461C084E0B8125B
S1130750D4C080910201882309F4A5C080910201CC
S1130760882309F411CDE2E0DE2E13C020ECB2168A
S113077009F445C080EFB81639F120E8B212BDC0C3
S11307808091020180910201882309F4FDCCB7E035
S1130790DB2EA0920101D09200015E9828960FB63C
S11307A0F894DEBF0FBECDBFDF91CF911F910F91A3
S11307B0FF90EF90DF90CF90BF90AF909F908F907D
S11307C07F906F905F90089580910201882309F4CF
S11307D0DBCCF0E3BF2E8FCC8091020160E1B62E1A
S11307E0811189CC60ECB62E86CC80910201809177
S11307F00201882309F4C8CC25E0D22ECACF809107
S11308000201882309F4C0CC50E4B52E74CC809145
S11308100201882309F4B8CC74E0B72E6CCC809123
S1130820020180910201882309F4AECC73E0D72E33
S1130830B0CF80910201BB24B39481115CCCECE075
S1130840BE2E59CC80910201A3E0BA2E811153CC63
S113085080EFB82E50CC80910201882309F440C067
S113086080910201882309F48FCC16E0D12E91CF18
S113087081E0B81669F022E0B2123FC08091020113
S113088080910201882309F47FCCDD24D39481CFA5
S113089080910201882389F080910201882309F460
S11308A073CCD12C76CF80910201A8E0BA2E882394
S11308B009F421CCF2E0DF2E1ECC80910201B2E0DB
S11308C0BB2E882309F417CCD12C15CC80910201BE
S11308D050E2B52E882309F40ECC44E0D42E0BCC80
S11308E08091020190E8B92E882309F404CC86E0B3
S11308F0D82E01CC34E0D32E4CCF4FE0B42EFBCB1A
S1130900AD2CF5CB85E08093690081E08DBB089523
S11309101F920F920FB60F9211248F9381E0809350
S113092002018F910F900FBE0F901F9018955D9844
S113093040E150E020E030E80DC05B9A5C98000094
S113094000005C9A00000000000036952795415095
S1130950510939F0BC0162237323672B71F75B984B
S1130960EDCF5D9A0895982F862F089581E09CE03D
S11309700E94970480E09DE00E94970487E09AE03B
S11309800E9497048FEF9BE00E94970480E099E017
S11309900E94970480E091E00E94970480E092E036
S11309A00E94970480E093E00E94970480E094E022
S11309B00E9497048FEF95E00E9497048FEF96E0D2
S11309C00E9497048FEF97E00E9497048FEF98E0BE
S11309D00C94970487708F5F982F862F0C9497043C
S11309E0CF93DF93EC01888190E091600E9497049B
S11309F0898190E092600E9497048A8190E09360DC
S1130A000E9497048B8190E094600E9497048C81EB
S1130A1090E095600E9497048D8190E096600E941A
S1130A2097048E8190E097600E9497048F8190E0F4
S1130A309860DF91CF910C94970490E09A600C94A5
S1130A40970490E09B600C94970490E099600C9458
S1130A50970405C00000615071098109910961156D
S1130A60710581059105B1F70895CF93DF93CDB753
S1130A70DEB728970FB6F894DEBF0FBECDBF8CE269
S1130A8084B91AB817B80E94B60485E08093690047
S1130A9081E08DBB789410920001109201011982BB
S1130AA01A821B821C821D821E821F82188662E0AB
S1130AB08AE00E94B3040E949704CE0101960E942A
S1130AC0F004EE24E394F12C11E002C080FF03C093
S1130AD083B11999FBCF0E94480062E08AE00E942A
S1130AE0B3040E949704809101018F3F61F19091BA
S1130AF000019F3F41F1189911C0E1E0F0E0EC0FD3
S1130B00FD1FE90FF11D97FDFA952081A701082E1D
S1130B1001C0440F0A94EAF7242B2083199913C0C7
S1130B20E1E0F0E0EC0FFD1FE90FF11D97FDFA95F0
S1130B30970102C0220F331F8A95E2F7C9018095FD
S1130B40908189238083CE0101960E94F00493B1A1
S1130B5083B1869581708113FACF90FFF8CF60E45A
S1130B607FE180E090E00E942905B2CFF894FFCFA6
S9030000FC
