S00C00006D61696E2E7372656373
S11300000C9434000C9476000C9451000C94510020
S11300100C9451000C9451000C9451000C94510018
S11300200C9451000C9451000C9451000C94510008
S11300300C9451000C9451000C9451000C945100F8
S11300400C9451000C9451000C9451000C945100E8
S11300500C9451000C9451000C9451000C945100D8
S11300600C9451000C94510011241FBECFEFD8E022
S1130070DEBFCDBF11E0A0E0B1E0E2EBF3E002C0EF
S113008005900D92A231B107D9F721E0A2E1B1E0C8
S113009001C01D92A532B207E1F70E9405010C943C
S11300A0D7010C940000CF93DF93CDB7DEB7289728
S11300B00FB6F894DEBF0FBECDBFCE01019628E087
S11300C0FC0111922A95E9F7BC010E94C50028960B
S11300D00FB6F894DEBF0FBECDBFDF91CF91089568
S11300E085E08093690081E08DBB08951F920F9293
S11300F00FB60F9211248F9381E0809324018F9186
S11301000F900FBE0F901F90189540E150E020E033
S113011030E80DC05B9A5C98000000005C9A000017
S113012000000000369527954150510939F0BC0173
S113013062237323672B71F75B98EDCF0895982F93
S1130140862F0895CF93DF935D98D82FC62FCE01C5
S11301500E948500CE010E9485005D9ADF91CF91B7
S1130160089561E08CE00E94A20060E08DE00E94AE
S1130170A20067E08AE00E94A2006FEF8BE00E9479
S1130180A20060E089E00C94A200EF92FF920F932A
S11301901F93CF93DF937B018C01C0E0D1E05D9886
S11301A0F70181917F019E01282BC9010E948500DE
S11301B0F80181918F019E01282BC9010E948500BD
S11301C05D9AD395C11539E0D30749F7DF91CF91F3
S11301D01F910F91FF90EF900895682F8AE00C947F
S11301E0A200682F8BE00C94A200682F89E00C9485
S11301F0A20005C0000061507109810991096115CF
S1130200710581059105B1F70895CF93DF93CDB7BB
S1130210DEB728970FB6F894DEBF0FBECDBF83E2DA
S113022084B988E78AB917B80E94B10083E00E94B4
S1130230ED0085E08093690081E08DBB789460EAED
S113024076E881E090E00E94F900CE0101966C010D
S113025088E0F60111928A95E9F7B601C6010E9479
S1130260C5002AE1E22E21E0F22E38E0832E992403
S11302709394809110019091110101968830910519
S113028009F489C09093110180931001F601882D1F
S113029011928A95E9F7B601C6010E94C50062E190
S11302A071E08AE191E00E94C50060E177E280E0BC
S11302B090E00E94F900E0911001F0911101E65ED6
S11302C0FE4F908298E0A92EB12C0AE111E0F801CA
S11302D081918F013197880F808362E171E08AE117
S11302E091E00E94C500F1E002321F0781F781E02E
S11302F0A816B10451F060EA76E881E090E00E942B
S1130300F90091E0A91AB108E0CF60E27EE480E050
S113031090E00E94F900E0911001F0911101EE5E6D
S1130320FE4F908262E171E08AE191E00E94C50093
S113033060EA76E881E090E00E94F90088E0A82E67
S1130340B12C02E111E0F80181918F013197880FFE
S1130350808362E171E08AE191E00E94C500E016C9
S1130360F10689F780912201909123010797C1F04A
S113037060EA76E881E090E00E94F900F1E0AF1ACB
S1130380B108F9F68091100190911101019688301D
S1130390910509F077CF109211011092100176CFD8
S11303A060E27EE480E090E00E94F900E7CFF894F8
S10503B0FFCF79
S11303B23C42A581995A3C003C42A581995A3C0091
S10503C2FFFF37
S9030000FC
