S00C00006D61696E2E7372656373
S11300000C9434000C944E000C9446000C9446005E
S11300100C9446000C9446000C9446000C94460044
S11300200C9446000C9446000C9446000C94460034
S11300300C9446000C9446000C9446000C94460024
S11300400C9446000C9446000C9446000C94460014
S11300500C9446000C9446000C9446000C94460004
S11300600C9446000C94460011241FBECFEFD8E038
S1130070DEBFCDBF21E0A0E0B1E001C01D92A13000
S1130080B207E1F70E94FB000C94E5040C94000015
S113009085E08093690081E08DBB08951F920F92E3
S11300A00FB60F9211248F9381E0809300018F91FA
S11300B00F900FBE0F901F9018955D9840E150E08F
S11300C020E030E80DC05B9A5C98000000005C9A68
S11300D0000000000000369527954150510939F081
S11300E0BC0162237323672B71F75B98EDCF5D9A94
S11300F00895982F862F089581E09CE00E945D006A
S113010080E09DE00E945D0087E09AE00E945D002F
S11301108FEF9BE00E945D0080E099E00E945D000B
S113012080E091E00E945D0080E092E00E945D002A
S113013080E093E00E945D0080E094E00E945D0016
S11301408FEF95E00E945D008FEF96E00E945D00C6
S11301508FEF97E00E945D008FEF98E00C945D00B4
S113016087708F5F982F862F0C945D00CF93DF9359
S1130170EC01888190E091600E945D00898190E0AB
S113018092600E945D008A8190E093600E945D000D
S11301908B8190E094600E945D008C8190E095607A
S11301A00E945D008D8190E096600E945D008E81CA
S11301B090E097600E945D008F8190E09860DF91ED
S11301C0CF910C945D0090E09A600C945D0090E0F7
S11301D09B600C945D0090E099600C945D0005C0F8
S11301E0000061507109810991096115710581054A
S11301F09105B1F70895CF93DF93CDB7DEB7289774
S11302000FB6F894DEBF0FBECDBF83E284B988E792
S11302108AB917B80E947C0085E08093690081E068
S11302208DBB7894612C712C0FE020EFA22E30E36B
S1130230B32E40E1C42E54E0D52E60E2462E70EC7D
S1130240E72EE0E4FE2EF0E85F2E3324339467E0DB
S11302508AE00E9479000E945D005E9A09830A8305
S11302600B830C830D830E830F830887CE010196C5
S11302700E94B60060ED77E080E090E00E94EF001D
S11302801092000168EB7BE080E090E00E94EF00B8
S11302908091000181113AC1A982AA82AB82AC8209
S11302A0AD82AE82AF82A886CE0101960E94B600CE
S11302B060ED77E080E090E00E94EF001092000192
S11302C068EB7BE080E090E00E94EF008091000109
S11302D0882309F494C0B982BA82BB82BC82BD82ED
S11302E0BE82BF82B886CE0101960E94B60060ED40
S11302F077E080E090E00E94EF001092000168EB4C
S11303007BE080E090E00E94EF0080910001882370
S113031009F4B6C0C982CA82CB82CC82CD82CE8295
S1130320CF82C886CE0101960E94B60060ED77E0C8
S113033080E090E00E94EF001092000168EB7BE007
S113034080E090E00E94EF0080910001882309F48E
S113035026C280910001882309F451C084E0882ECC
S11303601FE099249A94412F50E0FE01319630E029
S113037020E0CA01022E02C0959587950A94E2F7FF
S11303808170819581932F5F3F4F2830310589F724
S1130390CE0101960E94B60060ED77E080E090E027
S11303A00E94EF001092000168EB7BE080E090E097
S11303B00E94EF001F3009F454C108F447C0103400
S11303C009F47CC108F02FC1103209F459C110336B
S11303D009F44FC1103109F45EC11FE0C4CF1130DC
S11303E009F42EC21230C9F78091000180910001F6
S11303F0882309F425C199249394782C692C5E9858
S11304006CE08AE00E9479000E945D0019821A82E1
S11304101B821C821D821E821F821886E1E0F0E08E
S1130420EC0FFD1FE60DF11D832D072C01C0880F75
S11304300A94EAF78083CE0101960E94B60060E038
S113044075E38CE090E00E94EF0001CF133009F4D3
S113045042C128F2183009F445C11C3009F428C1FE
S1130460143009F0BACF809100018111F5C1809157
S1130470000118E0882309F476CFB2E09B2E73CFF5
S1130480E982EA82EB82EC82ED82EE82EF82E886F8
S1130490CE0101960E94B60060ED77E080E090E026
S11304A00E94EF001092000168EB7BE080E090E096
S11304B00E94EF0080910001882309F4A0CFF98203
S11304C0FA82FB82FC82FD82FE82FF82F886CE01E4
S11304D001960E94B60060ED77E080E090E00E9413
S11304E0EF001092000168EB7BE080E090E00E9456
S11304F0EF0080910001882309F429C18091000153
S1130500882309F47CCF16E0812E2ACF83E08983E7
S11305108A838B838C838D838E838F838887CE019C
S113052001960E94B60060ED77E080E090E00E94C2
S1130530EF001092000168EB7BE080E090E00E9405
S1130540EF0080910001882339F181E089838A8357
S11305508B838C838D838E838F838887CE010196D2
S11305600E94B60060ED77E080E090E00E94EF002A
S11305701092000168EB7BE080E090E00E94EF00C5
S113058080910001882309F4B9C080910001882377
S113059009F435CF812CE4CE8CE089838A838B8364
S11305A08C838D838E838F838887CE0101960E94EE
S11305B0B60060ED77E080E090E00E94EF001092DA
S11305C0000168EB7BE080E090E00E94EF00809106
S11305D00001882309F413CFD982DA82DB82DC821A
S11305E0DD82DE82DF82D886CE0101960E94B600CB
S11305F060ED77E080E090E00E94EF00109200014F
S113060068EB7BE080E090E00E94EF0080910001C5
S1130610882309F4ECC080910001882309F4EFCE0B
S113062092E0892E9DCE103CB1F0103F71F010384D
S113063009F0D3CE8091000180910001811120C185
S11306408FEF981609F4DBCED8CE80910001882371
S1130650B9F310E388CE80910001882389F310E474
S113066082CE8091000110EF882309F47CCE13E040
S11306707ACE8091000110E1811175CE10EC73CE19
S113068080910001809100018823D1F265E0962ECB
S1130690782C692CB4CE809100018111E7C080913F
S11306A0000110E2882309F45ECEE4E09E2E5BCEC6
S11306B080910001882321F214E055CE809100013D
S11306C08111E3C08091000110E8882309F44BCE26
S11306D056E0952E48CE8091000111E0811143CE61
S11306E01CE041CE8091000180910001882309F42F
S11306F0A7CFF3E09F2E782C692C81CE8091000146
S1130700811115C182E089838A838B838C838D83D5
S11307108E838F838887CE0101960E94B60060ED98
S113072077E080E090E00E94EF001092000168EB17
S11307307BE080E090E00E94EF00809100018091D6
S11307400001882309F45BCE8824839409CE809128
S113075000018111A2C059825A825B825C825D824F
S11307605E825F825886CE0101960E94B60060EDDB
S113077077E080E090E00E94EF001092000168EBC7
S11307807BE080E090E00E94EF0080910001809186
S11307900001882309F433CE87E0882EE1CD8091CF
S11307A000018111E9C049824A824B824C824D8208
S11307B04E824F824886CE0101960E94B60060EDBB
S11307C077E080E090E00E94EF001092000168EB77
S11307D07BE080E090E00E94EF0080910001809136
S11307E00001882309F40BCE95E0892EB9CD8091C0
S11307F0000181117AC088E089838A838B838C838A
S11308008D838E838F838887CE0101960E94B600E4
S113081060ED77E080E090E00E94EF00109200012C
S113082068EB7BE080E090E00E94EF0080910001A3
S113083080910001882309F4E2CD23E0822E90CD3B
S11308408091000181114AC08091000112E0882347
S113085009F489CD912C87CD80910001882309F476
S1130860EFCEA2E09A2E782C692CC9CD809100019C
S1130870882309F4E5CE74E0972E782C692CBFCD3B
S113088037E0932E782C692CBACD8091000188230F
S113089009F4D6CE46E0942EB0CD59825A825B82BA
S11308A05C825D825E825F825886CE0101960E94E0
S11308B0B60060ED77E080E090E00E94EF001092D7
S11308C0000168EB7BE080E090E00E94EF00809103
S11308D000018091000181115FCF15CE809100014C
S11308E0882309F4ADCE912C88CD88E089838A834E
S11308F08B838C838D838E838F838887CE0101962F
S11309000E94B60060ED77E080E090E00E94EF0086
S11309101092000168EB7BE080E090E00E94EF0021
S11309208091000180910001811187CF79CE82E00E
S113093089838A838B838C838D838E838F8388873B
S1130940CE0101960E94B60060ED77E080E090E071
S11309500E94EF001092000168EB7BE080E090E0E1
S11309600E94EF0080910001882339F180910001F9
S11309708111EACE812CF4CC49824A824B824C828A
S11309804D824E824F824886CE0101960E94B60067
S113099060ED77E080E090E00E94EF0010920001AB
S11309A068EB7BE080E090E00E94EF008091000122
S11309B080910001811118CFD1CC8091000188244D
S11109C083948111CDCC812CCBCCF894FFCF45
S9030000FC
