S00C00006D61696E2E7372656373
S11300000C9434000C94E4000C9446000C944600C8
S11300100C9446000C9446000C9446000C94460044
S11300200C9446000C9446000C9446000C94460034
S11300300C9446000C9446000C9446000C94460024
S11300400C9446000C9446000C9446000C94460014
S11300500C9446000C9446000C9446000C94460004
S11300600C9446000C94460011241FBECFEFD8E038
S1130070DEBFCDBF21E0A0E0B1E001C01D92A13000
S1130080B207E1F70E94FF000C94B6010C94000043
S11300905D9840E150E020E030E80DC05B9A5C9848
S11300A0000000005C9A00000000000036952795CF
S11300B04150510939F0BC0162237323672B71F756
S11300C05B98EDCF5D9A089570E09B01382BC901D0
S11300D0089581E09CE00E94480080E09DE00E9439
S11300E0480087E09AE00E9448008FEF9BE00E945E
S11300F0480080E099E00E94480080E091E00E947E
S1130100480080E092E00E94480080E093E00E9472
S1130110480080E094E00E9448008FEF95E00E9440
S113012048008FEF96E00E9448008FEF97E00E940E
S113013048008FEF98E00C944800877021E0280F66
S1130140862F90E0922B0C944800CF93DF93EC0120
S1130150888190E091600E944800898190E09260DB
S11301600E9448008A8190E093600E9448008B813D
S113017090E094600E9448008C8190E095600E9419
S113018048008D8190E096600E9448008E8190E046
S113019097600E9448008F8190E09860DF91CF9132
S11301A00C94480090E09A600C94480090E09B60A6
S11301B00C94480090E099600C94480085E080938A
S11301C0690081E08DBB08951F920F920FB60F92C4
S11301D011248F9381E0809300018F910F900FBEC3
S11301E00F901F90189505C0000061507109810996
S11301F091096115710581059105B1F70895CF93B2
S1130200DF93CDB7DEB728970FB6F894DEBF0FBEE5
S1130210CDBF83E284B988E78AB917B80E94690020
S113022085E08093690081E08DBB7894A12CB12C8A
S11302308E01075F1F4F77247A9488248394CC24FB
S1130240C394D12C67E08AE00E9464000E944800B5
S11302505E9ACE0101967C01FC0171920E171F0774
S1130260E1F7CE0101960E94A50060E273E080E010
S113027090E00E94F3001092000160EA7FE080E0C9
S113028090E00E94F30080910001882309F449C0A2
S113029086E0A82EB12C90E2992E612CFE013196B5
S11302A0292D61E080E090E030E02150462F082EB7
S11302B001C0440F0A94EAF7342B211104C0282DFD
S11302C0261B622F292D01968830910571F73193F1
S11302D00E171F0739F7CE0101960E94A50060E2B0
S11302E073E080E090E00E94F3001092000160EA65
S11302F07FE080E090E00E94F30080910001811192
S11303006928969481E0A81AB10841F6862D85954E
S11303108595859597E0A92EA81A862D80958770D6
S1130320B82E5E986CE08AE00E9464000E94480047
S1130330F70111927F010E171F07D1F7C6010B2C8D
S113034001C0880F0A94EAF7E1E0F0E0EC0FFD1F2A
S1130350EA0DF11D8083CE0101960E94A50060E89C
S11303607EE380E090E00E94F3006CCFF894FFCF2E
S9030000FC
